:0400000007EF00F016
:0A0008007B820BED08F0A8EF0DF06D
:10100000003738392F3435362A3132332D23303DED
:051010002B2569000022
:101016000600FACF49F0FBCF4AF0F2A815EF08F028
:1010260017EF08F020EF08F0F2A21CEF08F01EEF11
:1010360008F020EF08F0C1EC0EF0F0A625EF08F05E
:1010460027EF08F030EF08F0F0A02CEF08F02EEFB5
:1010560008F030EF08F0BFEC0EF0F0A835EF08F01E
:1010660037EF08F040EF08F0F0A23CEF08F03EEF53
:1010760008F040EF08F0BDEC0EF0F2A645EF08F0E0
:1010860047EF08F062EF08F0F2A04CEF08F04EEFE1
:1010960008F062EF08F081A853EF08F055EF08F06A
:1010A60062EF08F07A04D8A45BEF08F05DEF08F071
:1010B60062EF08F0000E7A6E000E81EC0EF0F2A6DA
:1010C60067EF08F069EF08F084EF08F0F2A06EEF22
:1010D60008F070EF08F084EF08F081B875EF08F0BB
:1010E60077EF08F084EF08F07A50D8A47DEF08F087
:1010F6007FEF08F084EF08F0010E7A6E010E81ECA6
:101106000EF0F2A689EF08F08BEF08F0A6EF08F0D4
:10111600F2A090EF08F092EF08F0A6EF08F081AA8F
:1011260097EF08F099EF08F0A6EF08F07904D8A435
:101136009FEF08F0A1EF08F0A6EF08F0000E796E19
:10114600000E74EC0EF0F2A6ABEF08F0ADEF08F06F
:10115600C8EF08F0F2A0B2EF08F0B4EF08F0C8EF5D
:1011660008F081BAB9EF08F0BBEF08F0C8EF08F055
:101176007950D8A4C1EF08F0C3EF08F0C8EF08F023
:10118600010E796E010E74EC0EF0F2A6CDEF08F0AA
:10119600CFEF08F0EAEF08F0F2A0D4EF08F0D6EFB0
:1011A60008F0EAEF08F081ACDBEF08F0DDEF08F0BD
:1011B600EAEF08F07804D8A4E3EF08F0E5EF08F0CA
:1011C600EAEF08F0000E786E000E67EC0EF0F2A65D
:1011D600EFEF08F0F1EF08F00CEF09F0F2A0F6EFF0
:1011E60008F0F8EF08F00CEF09F081BCFDEF08F00D
:1011F600FFEF08F00CEF09F07850D8A405EF09F0DE
:1012060007EF09F00CEF09F0010E786E010E67EC9E
:101216000EF0F2A611EF09F013EF09F02EEF09F028
:10122600F2A018EF09F01AEF09F02EEF09F081AEDF
:101236001FEF09F021EF09F02EEF09F07704D8A48B
:1012460027EF09F029EF09F02EEF09F0000E776E6F
:10125600000E5AEC0EF0F2A633EF09F035EF09F066
:1012660050EF09F0F2A03AEF09F03CEF09F050EF29
:1012760009F081BE41EF09F043EF09F050EF09F0A4
:101286007750D8A449EF09F04BEF09F050EF09F079
:10129600010E776E010E5AEC0EF09DAC55EF09F07B
:1012A60057EF09F060EF09F09EAC5CEF09F05EEFD6
:1012B60009F060EF09F0C7EC0EF0F2AA65EF09F04D
:1012C60067EF09F070EF09F0F2A46CEF09F06EEF2A
:1012D60009F070EF09F0AEEC0EF09DA075EF09F085
:1012E60077EF09F080EF09F09EA07CEF09F07EEF22
:1012F60009F080EF09F0A8EC0EF09DA285EF09F049
:1013060087EF09F090EF09F09EA28CEF09F08EEFBF
:1013160009F090EF09F00FEC0EF0A0A295EF09F09E
:1013260097EF09F0A0EF09F0A1A29CEF09F09EEF5C
:1013360009F0A0EF09F0A2EC0EF09DA8A5EF09F0C8
:10134600A7EF09F0B0EF09F09EA8ACEF09F0AEEFF9
:1013560009F0B0EF09F0B7EC0EF09DAAB5EF09F071
:10136600B7EF09F0C0EF09F09EAABCEF09F0BEEF97
:1013760009F0C0EF09F0C9EC0EF09DA6C5EF09F023
:10138600C7EF09F0D0EF09F09EA6CCEF09F0CEEF3B
:1013960009F0D0EF09F0B9EC0EF0A0A6D5EF09F0F0
:1013A600D7EF09F0E0EF09F0A1A6DCEF09F0DEEFD8
:1013B60009F0E0EF09F0BBEC0EF09DA4E5EF09F0B3
:1013C600E7EF09F0F0EF09F09EA4ECEF09F0EEEF7D
:1013D60009F0F0EF09F0C5EC0EF0A0A0F5EF09F06A
:1013E600F7EF09F000EF0AF0A1A0FCEF09F0FEEF1D
:1013F60009F000EF0AF0C3EC0EF04AC0FBFF49C04B
:10140600FAFF7B921100010E536E4B504C10D8B46C
:101416000FEF0AF011EF0AF022EF0AF04BC0D9FFE6
:101426004CC0DAFFDF30E832E832070B4D6E070EAC
:101436004D6420EF0AF022EF0AF085EF0AF0000E65
:10144600536EA6EF0AF04BC0D9FF4CC0DAFFDF306F
:10145600E832E832070B4D6E010E4E6E4D2A36EF1E
:101466000AF0D8904E364D2E34EF0AF04E50FF0A51
:101476004F6E4BC0D9FF4CC0DAFFDF50070B506EE2
:101486005050020D6D0EF324D96E000EF420DA6E64
:10149600DECF51F0DDCF52F051C0D9FF52C0DAFF96
:1014A6004F50DF16A6EF0AF04BC0D9FF4CC0DAFF4B
:1014B600DF30E832E832070B4D6E010E4E6E4D2AD4
:1014C60067EF0AF0D8904E364D2E65EF0AF04BC006
:1014D600D9FF4CC0DAFFDF50070B4F6E4F50020D9D
:1014E6006D0EF324D96E000EF420DA6EDECF50F0C6
:1014F600DDCF51F050C0D9FF51C0DAFF4E50DF1298
:10150600A6EF0AF04BC0D9FF4CC0DAFFDFBC8EEF66
:101516000AF091EF0AF0010E92EF0AF0000E4D6EFE
:101526004E6A4E50000AD8B49BEF0AF022EF0AF03A
:101536004D50000AD8B426EF0AF0010AD8B457EF86
:101546000AF022EF0AF053501200000E0001A66FB7
:1015560061506210D8A4B2EF0AF0B4EF0AF0B8EF07
:101566000AF0000EA76F43EF0BF061C055F062C0A2
:1015760056F03EEC0DF00001A76F010E6124556E8A
:10158600000E6220566E3EEC0DF00001A76F000EB5
:10159600A66FA6516124A46F000E6220A56F020EED
:1015A600A425556E000EA521566E3EEC0DF00001E9
:1015B600A62B070EA665E2EF0AF0E4EF0AF0CCEFE1
:1015C6000AF0340E0001A46FF10EE82EFED7A42F08
:1015D600FCD700D061C058F062C059F0380E5A6E80
:1015E600BDEC0CF00D0E0001A46FFB0EE82EFED72D
:1015F600A42FFCD700D061C058F062C059F0380E55
:101606005A6EBDEC0CF0640EE82EFED761C058F0A1
:1016160062C059F0380E5A6EBDEC0CF061C058F03D
:1016260062C059F0010E5A6EBDEC0CF061C058F064
:1016360062C059F0020E5A6EBDEC0CF061C058F053
:1016460062C059F0060E5A6EBDEC0CF061C058F03F
:1016560062C059F00C0E5A6EBDEC0CF061C058F029
:1016660062C059F0380E5A6EBDEC0CF061C058F0ED
:1016760062C059F0800E5A6EBDEC0CF00001A76FE7
:10168600A7511200010E546E4B504C10D8B44EEFB9
:101696000BF050EF0BF061EF0BF04BC0D9FF4CC0D5
:1016A600DAFFDF30E832E832070B4E6E070E4E6483
:1016B6005FEF0BF061EF0BF0C4EF0BF0000E546E12
:1016C600D9EF0BF04BC0D9FF4CC0DAFFDF30E83260
:1016D600E832070B4E6E010E4F6E4E2A75EF0BF079
:1016E600D8904F364E2E73EF0BF04F50FF0A506EC8
:1016F6004BC0D9FF4CC0DAFFDF50070B516E51507B
:10170600020D630EF324D96E000EF420DA6EDECFDE
:1017160052F0DDCF53F052C0D9FF53C0DAFF50501C
:10172600DF16D9EF0BF04BC0D9FF4CC0DAFFDF3024
:10173600E832E832070B4E6E010E4F6E4E2AA6EFC8
:101746000BF0D8904F364E2EA4EF0BF04BC0D9FFBE
:101756004CC0DAFFDF50070B506E5050020D630E7F
:10176600F324D96E000EF420DA6EDECF51F0DDCF11
:1017760052F051C0D9FF52C0DAFF4F50DF12D9EFF5
:101786000BF04D504E6E4F6A4F50000AD8B4CEEF54
:101796000BF061EF0BF04E50000AD8B465EF0BF07A
:1017A600010AD8B496EF0BF061EF0BF0545012001B
:1017B600000E616E5D505E10D8A4E4EF0BF0E6EF0C
:1017C6000BF0EAEF0BF0000E626E6DEF0CF05DC0F1
:1017D60055F05EC056F03EEC0DF0626E010E5D24D3
:1017E600556E000E5E20566E3EEC0DF0626E000EDB
:1017F600616E61505D245F6E000E5E20606E020EAB
:101806005F24556E000E6020566E3EEC0DF0612A88
:10181600030E616411EF0CF013EF0CF0FCEF0BF00C
:10182600340E5F6EF20EE82EFED75F2EFCD75DC03B
:1018360059F05EC05AF0380E5B6E05EC0DF00D0ED9
:101846005F6EFC0EE82EFED75F2EFCD75DC059F00A
:101856005EC05AF0380E5B6E05EC0DF0640EE82E95
:10186600FED75DC059F05EC05AF0380E5B6E05ECCF
:101876000DF05DC059F05EC05AF0010E5B6E05ECCE
:101886000DF05DC059F05EC05AF0020E5B6E05ECBD
:101896000DF05DC059F05EC05AF0060E5B6E05ECA9
:1018A6000DF05DC059F05EC05AF00C0E5B6E05EC93
:1018B6000DF05DC059F05EC05AF0280E5B6E05EC67
:1018C6000DF05DC059F05EC05AF0800E5B6E05ECFF
:1018D6000DF0626E625012004B504C10D8A476EF99
:1018E6000CF078EF0CF07CEF0CF0000E4E6EBBEFB8
:1018F6000CF0CA9420EE04F04B50D9264C50DA2254
:10190600DF38030B4D6ECA504D18FC0B4D18CA6ECE
:1019160020EE04F04B50D9264C50DA22DF500F0B44
:101926004D6E4D464D464D46CA504D18870B4D18C7
:10193600CA6E20EE03F04B50D9264C50DA22DF5007
:10194600CC6E20EE03F04B50D9264C50DA22DF50F5
:101956003B6E9D829E924BC0D9FF4CC0DAFFDECF14
:101966000DF0DDCF0EF0F28EF28CCA84010E4E6EB3
:101976004E501200000E606E58505910D8A4C6EF93
:101986000CF0C8EF0CF0CCEF0CF0000E5F6E03EF1E
:101996000DF058C04BF059C04CF0000E4D6E45ECA2
:1019A6000BF0000E606E605058245B6E000E5920DE
:1019B6005C6E020E5B244B6E000E5C204C6E60C0AB
:1019C6005DF05AC05EF05D2AEBEF0CF0D8905E3207
:1019D6005D2EE9EF0CF05E50010B4D6E45EC0BF001
:1019E600602A070E6064FAEF0CF0FCEF0CF0D6EFFD
:1019F6000CF058C055F059C056F0D9EC0DF05F6E9A
:101A06005F50120059505A10D8A40CEF0DF00EEF8B
:101A16000DF012EF0DF0000E5C6E3CEF0DF059C0AC
:101A26004BF05AC04CF0000E4D6E45EC0BF05C6E60
:101A360059C055F05AC056F05B380F0B576E74EC10
:101A46000DF05C6E59C055F05AC056F0F4EC0DF02E
:101A56005C6E59C055F05AC056F05BC057F074EC36
:101A66000DF05C6E59C055F05AC056F0F4EC0DF00E
:101A76005C6E5C50120055505610D8B445EF0DF010
:101A860047EF0DF058EF0DF055C0D9FF56C0DAFFFD
:101A9600DF30E832E832070B576E070E576456EF11
:101AA6000DF058EF0DF05CEF0DF0000E586E72EF72
:101AB6000DF055C04BF056C04CF006EC0AF0586ECF
:101AC60055C04BF056C04CF055C0D9FF56C0DAFF92
:101AD600000EDFBE010E4D6E45EC0BF0586E5850F1
:101AE6001200020E55244B6E000E56204C6E5750B7
:101AF600010B4D6E45EC0BF0030E55244B6E000E9C
:101B060056204C6ED8905730010B4D6E45EC0BF0BD
:101B1600040E55244B6E000E56204C6E5740E8427C
:101B26003F0B010B4D6E45EC0BF0050E55244B6E2D
:101B3600000E56204C6E5738E8461F0B010B4D6EB3
:101B460045EC0BF0586E58501200800EF66E1C0EC7
:101B5600F76E000EF86E00EE80F010EE1AF0090037
:101B6600F5CFEEFFE550E150FAE11C0EF66E1D0EC4
:101B7600F76E000EF86E00EE63F010EE18F0090036
:101B8600F5CFEEFFE550E150FAE100EE9AF00A0ECD
:101B9600EE6AE806FDE100EE01F0470EEE6AE806A1
:101BA600FDE17B907B92000128EF0EF0010E55249B
:101BB6004B6E000E56204C6E010E4D6E45EC0BF032
:101BC600030EE82EFED700F0010E55244B6E000ED4
:101BD60056204C6E000E4D6E45EC0BF0576E57506E
:101BE6001200010E55244B6E000E56204C6E010E4F
:101BF6004D6E45EC0BF0030EE82EFED700F0010EFD
:101C060055244B6E000E56204C6E000E4D6E45EC64
:101C16000BF0576E575012009E923BC0CCFF0D50F2
:101C26000E10D8B419EF0EF01BEF0EF027EF0EF0E2
:101C360002D827EF0EF00500FA6E0D50FD6E0E501D
:101C4600FE6EFF6AFA5012001200B4EC0EF0340E6B
:101C5600436E1D0E446E000E456ECF0E47160F0ED8
:101C66004712F90E466E430E4B6E000E4C6E6FEC2D
:101C76000CF03CEF0EF007EF00F0800F810F820FA3
:101C8600830F840F323A030B131B232B333B020AB9
:101C9600121A222A940E5D6E000E5E6EDBEC0BF0BD
:101CA6008A0E616E000E626EA8EC0AF01200486E93
:101CB600F2904850D8A462EF0EF064EF0EF066EF93
:101CC6000EF066EF0EF01200486EF2904850D8A45F
:101CD6006FEF0EF071EF0EF073EF0EF073EF0EF084
:101CE6001200486EF2904850D8A47CEF0EF07EEFBA
:101CF6000EF080EF0EF080EF0EF01200486EF290BC
:101D06004850D8A489EF0EF08BEF0EF08DEF0EF051
:101D16008DEF0EF01200890F8A0F8B0F8C0F8D0F2F
:101D2600920F930F940F950F960F01010101010E6B
:101D36000001A027000EA123A223A3231200A19233
:101D46000C50B36E0BC0B2FF12009E901250CF6EB5
:101D560011C0CEFF1200F2941650D76E15C0D6FFF2
:101D660012004DEC0EF012009D9812009E96120085
:101D7600A1961200F0921200F0901200F292120058
:0E1D8600A19012009E9412009E9C120012006A
:020000040020DA
:08000000FFFFFFFFFFFFFFFF00
:020000040030CA
:0E000000FF020912FF8181FF0FC00FE00F40C9
:00000001FF
